{
  "contractName": "AwesomePictureAuctions",
  "abi": [
    {
      "inputs": [
        {
          "internalType": "address",
          "name": "awesomePictureNFT",
          "type": "address"
        }
      ],
      "stateMutability": "nonpayable",
      "type": "constructor"
    },
    {
      "anonymous": false,
      "inputs": [
        {
          "indexed": false,
          "internalType": "uint256",
          "name": "maxBid",
          "type": "uint256"
        },
        {
          "indexed": false,
          "internalType": "address",
          "name": "MaxBidder",
          "type": "address"
        },
        {
          "indexed": false,
          "internalType": "address",
          "name": "beneficiary",
          "type": "address"
        },
        {
          "indexed": false,
          "internalType": "uint256",
          "name": "time",
          "type": "uint256"
        }
      ],
      "name": "AuctionClosed",
      "type": "event"
    },
    {
      "anonymous": false,
      "inputs": [
        {
          "indexed": false,
          "internalType": "address",
          "name": "beneficiary",
          "type": "address"
        },
        {
          "indexed": false,
          "internalType": "string",
          "name": "description",
          "type": "string"
        },
        {
          "indexed": false,
          "internalType": "uint256",
          "name": "startingPrice",
          "type": "uint256"
        }
      ],
      "name": "AuctionCreated",
      "type": "event"
    },
    {
      "anonymous": false,
      "inputs": [
        {
          "indexed": false,
          "internalType": "address",
          "name": "bidder",
          "type": "address"
        },
        {
          "indexed": false,
          "internalType": "uint256",
          "name": "bidAmount",
          "type": "uint256"
        }
      ],
      "name": "DepositWithdrawn",
      "type": "event"
    },
    {
      "anonymous": false,
      "inputs": [
        {
          "indexed": false,
          "internalType": "address",
          "name": "maxBidder",
          "type": "address"
        },
        {
          "indexed": false,
          "internalType": "uint256",
          "name": "maxBid",
          "type": "uint256"
        }
      ],
      "name": "MaxBidRegistered",
      "type": "event"
    },
    {
      "inputs": [
        {
          "internalType": "uint256",
          "name": "nftId",
          "type": "uint256"
        },
        {
          "internalType": "string",
          "name": "description",
          "type": "string"
        },
        {
          "internalType": "uint256",
          "name": "startingPrice",
          "type": "uint256"
        },
        {
          "internalType": "uint256",
          "name": "startTime",
          "type": "uint256"
        },
        {
          "internalType": "uint256",
          "name": "endTime",
          "type": "uint256"
        }
      ],
      "name": "addAuction",
      "outputs": [
        {
          "internalType": "uint256",
          "name": "",
          "type": "uint256"
        }
      ],
      "stateMutability": "nonpayable",
      "type": "function"
    },
    {
      "inputs": [
        {
          "internalType": "uint256",
          "name": "nftId",
          "type": "uint256"
        }
      ],
      "name": "bid",
      "outputs": [],
      "stateMutability": "payable",
      "type": "function",
      "payable": true
    },
    {
      "inputs": [
        {
          "internalType": "uint256",
          "name": "nftId",
          "type": "uint256"
        }
      ],
      "name": "withdraw",
      "outputs": [],
      "stateMutability": "nonpayable",
      "type": "function"
    },
    {
      "inputs": [
        {
          "internalType": "uint256",
          "name": "nftId",
          "type": "uint256"
        }
      ],
      "name": "closeAuction",
      "outputs": [],
      "stateMutability": "nonpayable",
      "type": "function"
    },
    {
      "inputs": [
        {
          "internalType": "uint256",
          "name": "nftId",
          "type": "uint256"
        }
      ],
      "name": "retrieveDescription",
      "outputs": [
        {
          "internalType": "string",
          "name": "",
          "type": "string"
        }
      ],
      "stateMutability": "view",
      "type": "function",
      "constant": true
    },
    {
      "inputs": [
        {
          "internalType": "uint256",
          "name": "nftId",
          "type": "uint256"
        }
      ],
      "name": "retrieveStartingPrice",
      "outputs": [
        {
          "internalType": "uint256",
          "name": "",
          "type": "uint256"
        }
      ],
      "stateMutability": "view",
      "type": "function",
      "constant": true
    },
    {
      "inputs": [
        {
          "internalType": "uint256",
          "name": "nftId",
          "type": "uint256"
        }
      ],
      "name": "retrieveStartTime",
      "outputs": [
        {
          "internalType": "uint256",
          "name": "",
          "type": "uint256"
        }
      ],
      "stateMutability": "view",
      "type": "function",
      "constant": true
    },
    {
      "inputs": [
        {
          "internalType": "uint256",
          "name": "nftId",
          "type": "uint256"
        }
      ],
      "name": "retrieveEndTime",
      "outputs": [
        {
          "internalType": "uint256",
          "name": "",
          "type": "uint256"
        }
      ],
      "stateMutability": "view",
      "type": "function",
      "constant": true
    },
    {
      "inputs": [
        {
          "internalType": "uint256",
          "name": "nftId",
          "type": "uint256"
        }
      ],
      "name": "retrieveMaxBid",
      "outputs": [
        {
          "internalType": "uint256",
          "name": "",
          "type": "uint256"
        }
      ],
      "stateMutability": "view",
      "type": "function",
      "constant": true
    },
    {
      "inputs": [
        {
          "internalType": "uint256",
          "name": "nftId",
          "type": "uint256"
        }
      ],
      "name": "retrieveMaxBidder",
      "outputs": [
        {
          "internalType": "address",
          "name": "",
          "type": "address"
        }
      ],
      "stateMutability": "view",
      "type": "function",
      "constant": true
    }
  ],
  "bytecode": "0x60806040523480156200001157600080fd5b5060405162001e4a38038062001e4a8339818101604052810190620000379190620000e8565b806000806101000a81548173ffffffffffffffffffffffffffffffffffffffff021916908373ffffffffffffffffffffffffffffffffffffffff160217905550506200011a565b600080fd5b600073ffffffffffffffffffffffffffffffffffffffff82169050919050565b6000620000b08262000083565b9050919050565b620000c281620000a3565b8114620000ce57600080fd5b50565b600081519050620000e281620000b7565b92915050565b6000602082840312156200010157620001006200007e565b5b60006200011184828501620000d1565b91505092915050565b611d20806200012a6000396000f3fe6080604052600436106100915760003560e01c8063b0692b3011610059578063b0692b301461017e578063c419bed0146101bb578063d625c68e146101f8578063fac5b89f14610235578063fd9f505c1461027257610091565b80631f36f6e714610096578063202b9dd0146100d3578063236ed8f3146101105780632e1a7d4d14610139578063454a2ab314610162575b600080fd5b3480156100a257600080fd5b506100bd60048036038101906100b89190611003565b6102af565b6040516100ca919061103f565b60405180910390f35b3480156100df57600080fd5b506100fa60048036038101906100f59190611003565b6102cf565b604051610107919061109b565b60405180910390f35b34801561011c57600080fd5b5061013760048036038101906101329190611003565b61030f565b005b34801561014557600080fd5b50610160600480360381019061015b9190611003565b610639565b005b61017c60048036038101906101779190611003565b6108f8565b005b34801561018a57600080fd5b506101a560048036038101906101a091906111fc565b610b06565b6040516101b2919061103f565b60405180910390f35b3480156101c757600080fd5b506101e260048036038101906101dd9190611003565b610e54565b6040516101ef919061103f565b60405180910390f35b34801561020457600080fd5b5061021f600480360381019061021a9190611003565b610e74565b60405161022c9190611312565b60405180910390f35b34801561024157600080fd5b5061025c60048036038101906102579190611003565b610f1c565b604051610269919061103f565b60405180910390f35b34801561027e57600080fd5b5061029960048036038101906102949190611003565b610f3c565b6040516102a6919061103f565b60405180910390f35b600060016000838152602001908152602001600020600501549050919050565b60006001600083815260200190815260200160002060060160009054906101000a900473ffffffffffffffffffffffffffffffffffffffff169050919050565b60006001600083815260200190815260200160002090508060080160009054906101000a900460ff16610377576040517f08c379a000000000000000000000000000000000000000000000000000000000815260040161036e90611380565b60405180910390fd5b80600301544210156103be576040517f08c379a00000000000000000000000000000000000000000000000000000000081526004016103b590611412565b60405180910390fd5b8060010160009054906101000a900473ffffffffffffffffffffffffffffffffffffffff1673ffffffffffffffffffffffffffffffffffffffff166108fc82600501549081150290604051600060405180830381858888f1935050505015801561042c573d6000803e3d6000fd5b5060008054906101000a900473ffffffffffffffffffffffffffffffffffffffff1673ffffffffffffffffffffffffffffffffffffffff166323b872dd8260010160009054906101000a900473ffffffffffffffffffffffffffffffffffffffff168360060160009054906101000a900473ffffffffffffffffffffffffffffffffffffffff16856040518463ffffffff1660e01b81526004016104d293929190611491565b600060405180830381600087803b1580156104ec57600080fd5b505af1158015610500573d6000803e3d6000fd5b505050507f7787e67b4b8529b1aa2c1a59dbf0f0e766d63860956b86f33f5d87008823550181600501548260060160009054906101000a900473ffffffffffffffffffffffffffffffffffffffff168360010160009054906101000a900473ffffffffffffffffffffffffffffffffffffffff164260405161058594939291906114c8565b60405180910390a160016000838152602001908152602001600020600080820160006105b19190610f5c565b6001820160006101000a81549073ffffffffffffffffffffffffffffffffffffffff021916905560028201600090556003820160009055600482016000905560058201600090556006820160006101000a81549073ffffffffffffffffffffffffffffffffffffffff02191690556008820160006101000a81549060ff021916905550505050565b600060016000838152602001908152602001600020905060008160070160003373ffffffffffffffffffffffffffffffffffffffff1673ffffffffffffffffffffffffffffffffffffffff1681526020019081526020016000205490508160060160009054906101000a900473ffffffffffffffffffffffffffffffffffffffff1673ffffffffffffffffffffffffffffffffffffffff163373ffffffffffffffffffffffffffffffffffffffff1603610700578160050154816106fd919061153c565b90505b8160080160009054906101000a900460ff16610751576040517f08c379a000000000000000000000000000000000000000000000000000000000815260040161074890611380565b60405180910390fd5b8160030154421015610798576040517f08c379a000000000000000000000000000000000000000000000000000000000815260040161078f906115e2565b60405180910390fd5b600081116107db576040517f08c379a00000000000000000000000000000000000000000000000000000000081526004016107d290611674565b60405180910390fd5b60008260070160003373ffffffffffffffffffffffffffffffffffffffff1673ffffffffffffffffffffffffffffffffffffffff168152602001908152602001600020819055503373ffffffffffffffffffffffffffffffffffffffff166108fc829081150290604051600060405180830381858888f193505050501561089a577f4482101800a5c2e900f4156e57e05e19ffd7b366cde579553d723fd3abb2180e338260405161088d929190611694565b60405180910390a16108f3565b808260070160003373ffffffffffffffffffffffffffffffffffffffff1673ffffffffffffffffffffffffffffffffffffffff16815260200190815260200160002060008282546108eb91906116bd565b925050819055505b505050565b60006001600083815260200190815260200160002090508060080160009054906101000a900460ff16610960576040517f08c379a000000000000000000000000000000000000000000000000000000000815260040161095790611380565b60405180910390fd5b806005015434118015610977575080600401543410155b6109b6576040517f08c379a00000000000000000000000000000000000000000000000000000000081526004016109ad9061173d565b60405180910390fd5b80600301544211156109fd576040517f08c379a00000000000000000000000000000000000000000000000000000000081526004016109f4906117a9565b60405180910390fd5b348160070160003373ffffffffffffffffffffffffffffffffffffffff1673ffffffffffffffffffffffffffffffffffffffff1681526020019081526020016000206000828254610a4e91906116bd565b92505081905550348160050181905550338160060160006101000a81548173ffffffffffffffffffffffffffffffffffffffff021916908373ffffffffffffffffffffffffffffffffffffffff1602179055507f1ef47d952e81d7a3404e2137f0096d4f0caeea0e38f03814357b2e8c1fb91d248160060160009054906101000a900473ffffffffffffffffffffffffffffffffffffffff168260050154604051610afa929190611694565b60405180910390a15050565b60003373ffffffffffffffffffffffffffffffffffffffff1660008054906101000a900473ffffffffffffffffffffffffffffffffffffffff1673ffffffffffffffffffffffffffffffffffffffff16636352211e886040518263ffffffff1660e01b8152600401610b78919061103f565b602060405180830381865afa158015610b95573d6000803e3d6000fd5b505050506040513d601f19601f82011682018060405250810190610bb991906117f5565b73ffffffffffffffffffffffffffffffffffffffff1614610c0f576040517f08c379a0000000000000000000000000000000000000000000000000000000008152600401610c0690611894565b60405180910390fd5b3073ffffffffffffffffffffffffffffffffffffffff1660008054906101000a900473ffffffffffffffffffffffffffffffffffffffff1673ffffffffffffffffffffffffffffffffffffffff1663081812fc886040518263ffffffff1660e01b8152600401610c7f919061103f565b602060405180830381865afa158015610c9c573d6000803e3d6000fd5b505050506040513d601f19601f82011682018060405250810190610cc091906117f5565b73ffffffffffffffffffffffffffffffffffffffff1614610d16576040517f08c379a0000000000000000000000000000000000000000000000000000000008152600401610d0d90611926565b60405180910390fd5b60006001600088815260200190815260200160002090508060080160009054906101000a900460ff1615610d7f576040517f08c379a0000000000000000000000000000000000000000000000000000000008152600401610d76906119b8565b60405180910390fd5b85816000019081610d909190611bda565b50338160010160006101000a81548173ffffffffffffffffffffffffffffffffffffffff021916908373ffffffffffffffffffffffffffffffffffffffff16021790555083816002018190555082816003018190555084816004018190555060018160080160006101000a81548160ff0219169083151502179055507f1213a5732f8b25273aaa6a88fcc260b1e20d69ef444066b48d9032a774994c91338787604051610e3f93929190611cac565b60405180910390a18691505095945050505050565b600060016000838152602001908152602001600020600301549050919050565b6060600160008381526020019081526020016000206000018054610e9790611a07565b80601f0160208091040260200160405190810160405280929190818152602001828054610ec390611a07565b8015610f105780601f10610ee557610100808354040283529160200191610f10565b820191906000526020600020905b815481529060010190602001808311610ef357829003601f168201915b50505050509050919050565b600060016000838152602001908152602001600020600401549050919050565b600060016000838152602001908152602001600020600201549050919050565b508054610f6890611a07565b6000825580601f10610f7a5750610f99565b601f016020900490600052602060002090810190610f989190610f9c565b5b50565b5b80821115610fb5576000816000905550600101610f9d565b5090565b6000604051905090565b600080fd5b600080fd5b6000819050919050565b610fe081610fcd565b8114610feb57600080fd5b50565b600081359050610ffd81610fd7565b92915050565b60006020828403121561101957611018610fc3565b5b600061102784828501610fee565b91505092915050565b61103981610fcd565b82525050565b60006020820190506110546000830184611030565b92915050565b600073ffffffffffffffffffffffffffffffffffffffff82169050919050565b60006110858261105a565b9050919050565b6110958161107a565b82525050565b60006020820190506110b0600083018461108c565b92915050565b600080fd5b600080fd5b6000601f19601f8301169050919050565b7f4e487b7100000000000000000000000000000000000000000000000000000000600052604160045260246000fd5b611109826110c0565b810181811067ffffffffffffffff82111715611128576111276110d1565b5b80604052505050565b600061113b610fb9565b90506111478282611100565b919050565b600067ffffffffffffffff821115611167576111666110d1565b5b611170826110c0565b9050602081019050919050565b82818337600083830152505050565b600061119f61119a8461114c565b611131565b9050828152602081018484840111156111bb576111ba6110bb565b5b6111c684828561117d565b509392505050565b600082601f8301126111e3576111e26110b6565b5b81356111f384826020860161118c565b91505092915050565b600080600080600060a0868803121561121857611217610fc3565b5b600061122688828901610fee565b955050602086013567ffffffffffffffff81111561124757611246610fc8565b5b611253888289016111ce565b945050604061126488828901610fee565b935050606061127588828901610fee565b925050608061128688828901610fee565b9150509295509295909350565b600081519050919050565b600082825260208201905092915050565b60005b838110156112cd5780820151818401526020810190506112b2565b60008484015250505050565b60006112e482611293565b6112ee818561129e565b93506112fe8185602086016112af565b611307816110c0565b840191505092915050565b6000602082019050818103600083015261132c81846112d9565b905092915050565b7f5b4552524f525d2041756374696f6e206e6f7420726567697374657265642e00600082015250565b600061136a601f8361129e565b915061137582611334565b602082019050919050565b600060208201905081810360008301526113998161135d565b9050919050565b7f5b4552524f525d2041756374696f6e2063616e6e6f7420626520636c6f73656460008201527f2e00000000000000000000000000000000000000000000000000000000000000602082015250565b60006113fc60218361129e565b9150611407826113a0565b604082019050919050565b6000602082019050818103600083015261142b816113ef565b9050919050565b6000819050919050565b600061145761145261144d8461105a565b611432565b61105a565b9050919050565b60006114698261143c565b9050919050565b600061147b8261145e565b9050919050565b61148b81611470565b82525050565b60006060820190506114a66000830186611482565b6114b3602083018561108c565b6114c06040830184611030565b949350505050565b60006080820190506114dd6000830187611030565b6114ea602083018661108c565b6114f76040830185611482565b6115046060830184611030565b95945050505050565b7f4e487b7100000000000000000000000000000000000000000000000000000000600052601160045260246000fd5b600061154782610fcd565b915061155283610fcd565b925082820390508181111561156a5761156961150d565b5b92915050565b7f5b4552524f525d2041756374696f6e20686173206e6f7420656e64656420796560008201527f742e000000000000000000000000000000000000000000000000000000000000602082015250565b60006115cc60228361129e565b91506115d782611570565b604082019050919050565b600060208201905081810360008301526115fb816115bf565b9050919050565b7f5b4552524f525d204e6f206465706f73697420666f756e6420666f722062696460008201527f6465722e00000000000000000000000000000000000000000000000000000000602082015250565b600061165e60248361129e565b915061166982611602565b604082019050919050565b6000602082019050818103600083015261168d81611651565b9050919050565b60006040820190506116a9600083018561108c565b6116b66020830184611030565b9392505050565b60006116c882610fcd565b91506116d383610fcd565b92508282019050808211156116eb576116ea61150d565b5b92915050565b7f5b4552524f525d2042696420616d6f756e7420697320746f6f20736d616c6c2e600082015250565b600061172760208361129e565b9150611732826116f1565b602082019050919050565b600060208201905081810360008301526117568161171a565b9050919050565b7f5b4552524f525d2041756374696f6e2068617320656e6465642e000000000000600082015250565b6000611793601a8361129e565b915061179e8261175d565b602082019050919050565b600060208201905081810360008301526117c281611786565b9050919050565b6117d28161107a565b81146117dd57600080fd5b50565b6000815190506117ef816117c9565b92915050565b60006020828403121561180b5761180a610fc3565b5b6000611819848285016117e0565b91505092915050565b7f5b4552524f525d204f6e6c7920746865206f776e6572206f662061204e46542060008201527f63616e20726567697374657220616e2061756374696f6e2e0000000000000000602082015250565b600061187e60388361129e565b915061188982611822565b604082019050919050565b600060208201905081810360008301526118ad81611871565b9050919050565b7f5b4552524f525d205468652063757272656e7420636f6e74726163742069732060008201527f6e6f7420617070726f76656420746f20616374206173207370656e6465720000602082015250565b6000611910603e8361129e565b915061191b826118b4565b604082019050919050565b6000602082019050818103600083015261193f81611903565b9050919050565b7f5b4552524f525d2041756374696f6e20697320616c726561647920616374697660008201527f652e000000000000000000000000000000000000000000000000000000000000602082015250565b60006119a260228361129e565b91506119ad82611946565b604082019050919050565b600060208201905081810360008301526119d181611995565b9050919050565b7f4e487b7100000000000000000000000000000000000000000000000000000000600052602260045260246000fd5b60006002820490506001821680611a1f57607f821691505b602082108103611a3257611a316119d8565b5b50919050565b60008190508160005260206000209050919050565b60006020601f8301049050919050565b600082821b905092915050565b600060088302611a9a7fffffffffffffffffffffffffffffffffffffffffffffffffffffffffffffffff82611a5d565b611aa48683611a5d565b95508019841693508086168417925050509392505050565b6000611ad7611ad2611acd84610fcd565b611432565b610fcd565b9050919050565b6000819050919050565b611af183611abc565b611b05611afd82611ade565b848454611a6a565b825550505050565b600090565b611b1a611b0d565b611b25818484611ae8565b505050565b5b81811015611b4957611b3e600082611b12565b600181019050611b2b565b5050565b601f821115611b8e57611b5f81611a38565b611b6884611a4d565b81016020851015611b77578190505b611b8b611b8385611a4d565b830182611b2a565b50505b505050565b600082821c905092915050565b6000611bb160001984600802611b93565b1980831691505092915050565b6000611bca8383611ba0565b9150826002028217905092915050565b611be382611293565b67ffffffffffffffff811115611bfc57611bfb6110d1565b5b611c068254611a07565b611c11828285611b4d565b600060209050601f831160018114611c445760008415611c32578287015190505b611c3c8582611bbe565b865550611ca4565b601f198416611c5286611a38565b60005b82811015611c7a57848901518255600182019150602085019450602081019050611c55565b86831015611c975784890151611c93601f891682611ba0565b8355505b6001600288020188555050505b505050505050565b6000606082019050611cc1600083018661108c565b8181036020830152611cd381856112d9565b9050611ce26040830184611030565b94935050505056fea2646970667358221220b4fbb7dc57249faef768f959d86fc6036d2a4614f014fba5ad01d43a457f398d64736f6c63430008130033",
  "immutableReferences": {},
  "source": "// SPDX-License-Identifier: GPL-3.0\r\n\r\npragma solidity ^0.8.0;\r\n\r\nimport \"./AwesomePictureNFT.sol\";\r\n\r\ncontract AwesomePictureAuctions {\r\n    struct AuctionInstance {\r\n        string _description;\r\n        address payable _beneficiary;\r\n        uint256 _startTime;\r\n        uint256 _endTime;\r\n        uint256 _startingPrice;\r\n        uint256 _maxBid;\r\n        address _maxBidder;\r\n        mapping(address => uint256) _bidderDeposits;\r\n        bool _exists;\r\n    }\r\n\r\n    AwesomePictureNFT _awesomePictureNFT;\r\n    mapping(uint => AuctionInstance) auctions;\r\n\r\n    event AuctionCreated(address beneficiary, string description, uint256 startingPrice);\r\n    event MaxBidRegistered(address maxBidder, uint256 maxBid);\r\n    event DepositWithdrawn(address bidder, uint256 bidAmount);\r\n    event AuctionClosed(uint256 maxBid, address MaxBidder, address beneficiary, uint256 time);\r\n\r\n    constructor(address awesomePictureNFT) {\r\n        _awesomePictureNFT = AwesomePictureNFT(awesomePictureNFT);\r\n    }\r\n\r\n    function addAuction(uint256 nftId, string memory description, uint256 startingPrice, uint256 startTime, uint256 endTime) public returns (uint256) {\r\n        require(_awesomePictureNFT.ownerOf(nftId) == msg.sender, \"[ERROR] Only the owner of a NFT can register an auction.\");\r\n        require(_awesomePictureNFT.getApproved(nftId) == address(this), \"[ERROR] The current contract is not approved to act as spender\");\r\n\r\n        AuctionInstance storage auction = auctions[nftId];\r\n\r\n        require(!auction._exists, \"[ERROR] Auction is already active.\");\r\n\r\n        auction._description = description;\r\n        auction._beneficiary = payable(msg.sender);\r\n        auction._startTime = startTime;\r\n        auction._endTime = endTime;\r\n        auction._startingPrice = startingPrice;\r\n        auction._exists = true;\r\n\r\n        emit AuctionCreated(msg.sender, description, startingPrice);\r\n\r\n        return nftId;\r\n    }\r\n\r\n    function bid(uint nftId) public payable {\r\n        AuctionInstance storage auction = auctions[nftId];\r\n\r\n        require(auction._exists, \"[ERROR] Auction not registered.\");\r\n        require(msg.value > auction._maxBid && msg.value >= auction._startingPrice, \"[ERROR] Bid amount is too small.\");\r\n        require(block.timestamp <= auction._endTime, \"[ERROR] Auction has ended.\");\r\n\r\n        auction._bidderDeposits[msg.sender] += msg.value;\r\n        auction._maxBid = msg.value;\r\n        auction._maxBidder = msg.sender;\r\n\r\n        emit MaxBidRegistered(auction._maxBidder, auction._maxBid);\r\n    }\r\n\r\n    function withdraw(uint nftId) public {\r\n        AuctionInstance storage auction = auctions[nftId];\r\n\r\n        uint256 bidAmount = auction._bidderDeposits[msg.sender];\r\n        if (msg.sender == auction._maxBidder) {\r\n            bidAmount -= auction._maxBid; \r\n        }\r\n\r\n        require(auction._exists, \"[ERROR] Auction not registered.\");\r\n        require(block.timestamp >= auction._endTime, \"[ERROR] Auction has not ended yet.\");\r\n        require(bidAmount > 0, \"[ERROR] No deposit found for bidder.\");\r\n\r\n        auction._bidderDeposits[msg.sender] = 0;\r\n\r\n        if (payable(msg.sender).send(bidAmount)) {\r\n            emit DepositWithdrawn(msg.sender, bidAmount);\r\n        } else {\r\n            auction._bidderDeposits[msg.sender] += bidAmount;\r\n        }\r\n    }\r\n\r\n    function closeAuction(uint nftId) public {\r\n        AuctionInstance storage auction = auctions[nftId];\r\n\r\n        require(auction._exists, \"[ERROR] Auction not registered.\");\r\n        require(block.timestamp >= auction._endTime, \"[ERROR] Auction cannot be closed.\");\r\n\r\n        auction._beneficiary.transfer(auction._maxBid);\r\n        _awesomePictureNFT.transferFrom(auction._beneficiary, auction._maxBidder, nftId);\r\n\r\n        emit AuctionClosed(auction._maxBid, auction._maxBidder, auction._beneficiary, block.timestamp); \r\n\r\n        delete auctions[nftId];\r\n    }\r\n\r\n    function retrieveDescription(uint nftId) public view returns (string memory) {\r\n        return auctions[nftId]._description;\r\n    }\r\n\r\n    function retrieveStartingPrice(uint nftId) public view returns (uint256) {\r\n        return auctions[nftId]._startingPrice;\r\n    }\r\n\r\n    function retrieveStartTime(uint nftId) public view returns (uint256) {\r\n        return auctions[nftId]._startTime;\r\n    }\r\n\r\n    function retrieveEndTime(uint nftId) public view returns (uint256) {\r\n        return auctions[nftId]._endTime;\r\n    } \r\n\r\n    function retrieveMaxBid(uint nftId) public view returns (uint256) {\r\n        return auctions[nftId]._maxBid;\r\n    }\r\n\r\n    function retrieveMaxBidder(uint nftId) public view returns (address) {\r\n        return auctions[nftId]._maxBidder;\r\n    }\r\n}",
  "sourcePath": "D:\\UTC-N\\Anul IV\\Licenta\\truffle\\contracts\\AwesomePictureAuctions.sol",
  "compiler": {
    "name": "solc",
    "version": "0.8.19+commit.7dd6d404.Emscripten.clang"
  },
  "schemaVersion": "3.4.13",
  "updatedAt": "2023-03-07T19:12:07.712Z",
  "networkType": "ethereum",
  "devdoc": {
    "kind": "dev",
    "methods": {},
    "version": 1
  },
  "userdoc": {
    "kind": "user",
    "methods": {},
    "version": 1
  }
}